{
  "_format": "hh-sol-artifact-1",
  "contractName": "PeerGrading",
  "sourceName": "src/PeerGrading.sol",
  "abi": [
    {
      "inputs": [
        {
          "internalType": "address[]",
          "name": "_participants",
          "type": "address[]"
        },
        {
          "internalType": "address",
          "name": "_randSrc",
          "type": "address"
        },
        {
          "internalType": "uint256",
          "name": "_workload",
          "type": "uint256"
        },
        {
          "internalType": "string",
          "name": "_IPFS_hash",
          "type": "string"
        }
      ],
      "stateMutability": "nonpayable",
      "type": "constructor"
    },
    {
      "anonymous": false,
      "inputs": [
        {
          "indexed": true,
          "internalType": "address",
          "name": "participant",
          "type": "address"
        },
        {
          "indexed": true,
          "internalType": "uint256",
          "name": "assignmentId",
          "type": "uint256"
        }
      ],
      "name": "AddedParticipant",
      "type": "event"
    },
    {
      "anonymous": false,
      "inputs": [
        {
          "indexed": false,
          "internalType": "uint8[]",
          "name": "consensusVector",
          "type": "uint8[]"
        }
      ],
      "name": "ConsensusReached",
      "type": "event"
    },
    {
      "anonymous": false,
      "inputs": [
        {
          "indexed": false,
          "internalType": "uint8[]",
          "name": "consensusVector",
          "type": "uint8[]"
        },
        {
          "indexed": true,
          "internalType": "address",
          "name": "sender",
          "type": "address"
        }
      ],
      "name": "NewConsensus",
      "type": "event"
    },
    {
      "anonymous": false,
      "inputs": [
        {
          "indexed": true,
          "internalType": "address",
          "name": "participant",
          "type": "address"
        }
      ],
      "name": "Voted",
      "type": "event"
    },
    {
      "inputs": [],
      "name": "IPFS_hash",
      "outputs": [
        {
          "internalType": "string",
          "name": "",
          "type": "string"
        }
      ],
      "stateMutability": "view",
      "type": "function"
    },
    {
      "inputs": [
        {
          "internalType": "uint8[]",
          "name": "consensusArray",
          "type": "uint8[]"
        },
        {
          "internalType": "uint8[][]",
          "name": "grading",
          "type": "uint8[][]"
        }
      ],
      "name": "calculatePenalties",
      "outputs": [
        {
          "internalType": "uint8[]",
          "name": "",
          "type": "uint8[]"
        }
      ],
      "stateMutability": "pure",
      "type": "function"
    },
    {
      "inputs": [],
      "name": "currentState",
      "outputs": [
        {
          "internalType": "enum PeerGrading.CurrentState",
          "name": "",
          "type": "uint8"
        }
      ],
      "stateMutability": "view",
      "type": "function"
    },
    {
      "inputs": [
        {
          "internalType": "address",
          "name": "_participant",
          "type": "address"
        }
      ],
      "name": "distributeAssignments",
      "outputs": [
        {
          "internalType": "uint256[]",
          "name": "arr",
          "type": "uint256[]"
        }
      ],
      "stateMutability": "view",
      "type": "function"
    },
    {
      "inputs": [],
      "name": "finalizeConsensus",
      "outputs": [],
      "stateMutability": "nonpayable",
      "type": "function"
    },
    {
      "inputs": [
        {
          "internalType": "address",
          "name": "_address",
          "type": "address"
        }
      ],
      "name": "getParticipant",
      "outputs": [
        {
          "internalType": "bytes32",
          "name": "",
          "type": "bytes32"
        },
        {
          "internalType": "uint256",
          "name": "",
          "type": "uint256"
        },
        {
          "internalType": "uint256",
          "name": "",
          "type": "uint256"
        },
        {
          "internalType": "uint256[]",
          "name": "",
          "type": "uint256[]"
        },
        {
          "internalType": "uint256[]",
          "name": "",
          "type": "uint256[]"
        }
      ],
      "stateMutability": "view",
      "type": "function"
    },
    {
      "inputs": [
        {
          "internalType": "address",
          "name": "",
          "type": "address"
        }
      ],
      "name": "participants",
      "outputs": [
        {
          "internalType": "bytes32",
          "name": "commit",
          "type": "bytes32"
        },
        {
          "internalType": "uint256",
          "name": "penalty",
          "type": "uint256"
        },
        {
          "internalType": "uint256",
          "name": "assignmentId",
          "type": "uint256"
        }
      ],
      "stateMutability": "view",
      "type": "function"
    },
    {
      "inputs": [],
      "name": "randSrc",
      "outputs": [
        {
          "internalType": "contract IRandomnessSource",
          "name": "",
          "type": "address"
        }
      ],
      "stateMutability": "view",
      "type": "function"
    },
    {
      "inputs": [
        {
          "internalType": "uint8[]",
          "name": "_consensusVector",
          "type": "uint8[]"
        }
      ],
      "name": "receiveConsensus",
      "outputs": [],
      "stateMutability": "nonpayable",
      "type": "function"
    },
    {
      "inputs": [],
      "name": "vote",
      "outputs": [],
      "stateMutability": "nonpayable",
      "type": "function"
    }
  ],
  "bytecode": "0x60806040526000600660006101000a81548160ff021916908360ff1602179055506000600960006101000a81548160ff0219169083600181111562000049576200004862000305565b5b02179055503480156200005b57600080fd5b50604051620030ae380380620030ae833981810160405281019062000081919062000642565b81845111620000c7576040517f08c379a0000000000000000000000000000000000000000000000000000000008152600401620000be906200079f565b60405180910390fd5b60005b84518110156200023957600181620000e39190620007f0565b600080878481518110620000fc57620000fb6200082b565b5b602002602001015173ffffffffffffffffffffffffffffffffffffffff1673ffffffffffffffffffffffffffffffffffffffff16815260200190815260200160002060020181905550600181620001549190620007f0565b8582815181106200016a57620001696200082b565b5b602002602001015173ffffffffffffffffffffffffffffffffffffffff167f3087081998813b524fe5bfb62b23127ab88f76896bbbc43aa2b580bde451763060405160405180910390a3848181518110620001ca57620001c96200082b565b5b60200260200101516001600083815260200190815260200160002060006101000a81548173ffffffffffffffffffffffffffffffffffffffff021916908373ffffffffffffffffffffffffffffffffffffffff160217905550808062000230906200085a565b915050620000ca565b5082600960016101000a81548173ffffffffffffffffffffffffffffffffffffffff021916908373ffffffffffffffffffffffffffffffffffffffff160217905550836000815181106200029257620002916200082b565b5b6020026020010151600460006101000a81548173ffffffffffffffffffffffffffffffffffffffff021916908373ffffffffffffffffffffffffffffffffffffffff1602179055508351600581905550816003819055508060089081620002fa919062000ae8565b505050505062000bcf565b7f4e487b7100000000000000000000000000000000000000000000000000000000600052602160045260246000fd5b6000604051905090565b600080fd5b600080fd5b600080fd5b6000601f19601f8301169050919050565b7f4e487b7100000000000000000000000000000000000000000000000000000000600052604160045260246000fd5b62000398826200034d565b810181811067ffffffffffffffff82111715620003ba57620003b96200035e565b5b80604052505050565b6000620003cf62000334565b9050620003dd82826200038d565b919050565b600067ffffffffffffffff8211156200040057620003ff6200035e565b5b602082029050602081019050919050565b600080fd5b600073ffffffffffffffffffffffffffffffffffffffff82169050919050565b6000620004438262000416565b9050919050565b620004558162000436565b81146200046157600080fd5b50565b60008151905062000475816200044a565b92915050565b6000620004926200048c84620003e2565b620003c3565b90508083825260208201905060208402830185811115620004b857620004b762000411565b5b835b81811015620004e55780620004d0888262000464565b845260208401935050602081019050620004ba565b5050509392505050565b600082601f83011262000507576200050662000348565b5b8151620005198482602086016200047b565b91505092915050565b6000819050919050565b620005378162000522565b81146200054357600080fd5b50565b60008151905062000557816200052c565b92915050565b600080fd5b600067ffffffffffffffff82111562000580576200057f6200035e565b5b6200058b826200034d565b9050602081019050919050565b60005b83811015620005b85780820151818401526020810190506200059b565b60008484015250505050565b6000620005db620005d58462000562565b620003c3565b905082815260208101848484011115620005fa57620005f96200055d565b5b6200060784828562000598565b509392505050565b600082601f83011262000627576200062662000348565b5b815162000639848260208601620005c4565b91505092915050565b600080600080608085870312156200065f576200065e6200033e565b5b600085015167ffffffffffffffff81111562000680576200067f62000343565b5b6200068e87828801620004ef565b9450506020620006a18782880162000464565b9350506040620006b48782880162000546565b925050606085015167ffffffffffffffff811115620006d857620006d762000343565b5b620006e6878288016200060f565b91505092959194509250565b600082825260208201905092915050565b7f4e756d626572206f662061737369676e6d656e7473207065722070617274696360008201527f6970616e74206d757374206265206c6573736572207468616e206e756d62657260208201527f206f66207061727469636970616e747300000000000000000000000000000000604082015250565b600062000787605083620006f2565b9150620007948262000703565b606082019050919050565b60006020820190508181036000830152620007ba8162000778565b9050919050565b7f4e487b7100000000000000000000000000000000000000000000000000000000600052601160045260246000fd5b6000620007fd8262000522565b91506200080a8362000522565b9250828201905080821115620008255762000824620007c1565b5b92915050565b7f4e487b7100000000000000000000000000000000000000000000000000000000600052603260045260246000fd5b6000620008678262000522565b91507fffffffffffffffffffffffffffffffffffffffffffffffffffffffffffffffff82036200089c576200089b620007c1565b5b600182019050919050565b600081519050919050565b7f4e487b7100000000000000000000000000000000000000000000000000000000600052602260045260246000fd5b60006002820490506001821680620008fa57607f821691505b60208210810362000910576200090f620008b2565b5b50919050565b60008190508160005260206000209050919050565b60006020601f8301049050919050565b600082821b905092915050565b6000600883026200097a7fffffffffffffffffffffffffffffffffffffffffffffffffffffffffffffffff826200093b565b6200098686836200093b565b95508019841693508086168417925050509392505050565b6000819050919050565b6000620009c9620009c3620009bd8462000522565b6200099e565b62000522565b9050919050565b6000819050919050565b620009e583620009a8565b620009fd620009f482620009d0565b84845462000948565b825550505050565b600090565b62000a1462000a05565b62000a21818484620009da565b505050565b5b8181101562000a495762000a3d60008262000a0a565b60018101905062000a27565b5050565b601f82111562000a985762000a628162000916565b62000a6d846200092b565b8101602085101562000a7d578190505b62000a9562000a8c856200092b565b83018262000a26565b50505b505050565b600082821c905092915050565b600062000abd6000198460080262000a9d565b1980831691505092915050565b600062000ad8838362000aaa565b9150826002028217905092915050565b62000af382620008a7565b67ffffffffffffffff81111562000b0f5762000b0e6200035e565b5b62000b1b8254620008e1565b62000b2882828562000a4d565b600060209050601f83116001811462000b60576000841562000b4b578287015190505b62000b57858262000aca565b86555062000bc7565b601f19841662000b708662000916565b60005b8281101562000b9a5784890151825560018201915060208501945060208101905062000b73565b8683101562000bba578489015162000bb6601f89168262000aaa565b8355505b6001600288020188555050505b505050505050565b6124cf8062000bdf6000396000f3fe608060405234801561001057600080fd5b506004361061009e5760003560e01c8063632a9a5211610066578063632a9a521461015f5780637143059f14610169578063860bea871461019d5780639d448d24146101b9578063d54e4b99146101e95761009e565b8063019f9ef9146100a357806309e69ede146100d35780630c3f6acf1461010557806321f7de531461012357806332f23d3014610141575b600080fd5b6100bd60048036038101906100b89190610e56565b6101f3565b6040516100ca9190610f8c565b60405180910390f35b6100ed60048036038101906100e8919061100c565b61038d565b6040516100fc9392919061106b565b60405180910390f35b61010d6103b7565b60405161011a9190611119565b60405180910390f35b61012b6103ca565b6040516101389190611193565b60405180910390f35b6101496103f0565b604051610156919061122d565b60405180910390f35b61016761047e565b005b610183600480360381019061017e919061100c565b610561565b60405161019495949392919061130d565b60405180910390f35b6101b760048036038101906101b2919061136e565b6106b1565b005b6101d360048036038101906101ce919061100c565b6107a5565b6040516101e091906113b7565b60405180910390f35b6101f1610a8d565b005b60606000825167ffffffffffffffff81111561021257610211610bf9565b5b6040519080825280602002602001820160405280156102405781602001602082028036833780820191505090505b50905060005b83518160ff1610156103825760008060005b868460ff168151811061026e5761026d6113d9565b5b6020026020010151518160ff161015610341576000808390505b89518160ff16101561031757888660ff16815181106102aa576102a96113d9565b5b60200260200101518360ff16815181106102c7576102c66113d9565b5b602002602001015160ff168a8260ff16815181106102e8576102e76113d9565b5b602002602001015160ff16036103045780935060019150610317565b808061030f90611437565b915050610288565b508061032d5760018461032a9190611460565b93505b50808061033990611437565b915050610258565b5081848460ff1681518110610359576103586113d9565b5b602002602001019060ff16908160ff16815250505050808061037a90611437565b915050610246565b508091505092915050565b60006020528060005260406000206000915090508060000154908060010154908060020154905083565b600960009054906101000a900460ff1681565b600960019054906101000a900473ffffffffffffffffffffffffffffffffffffffff1681565b600880546103fd906114c4565b80601f0160208091040260200160405190810160405280929190818152602001828054610429906114c4565b80156104765780601f1061044b57610100808354040283529160200191610476565b820191906000526020600020905b81548152906001019060200180831161045957829003601f168201915b505050505081565b60008060003373ffffffffffffffffffffffffffffffffffffffff1673ffffffffffffffffffffffffffffffffffffffff1681526020019081526020016000206002015403610502576040517f08c379a00000000000000000000000000000000000000000000000000000000081526004016104f990611541565b60405180910390fd5b6001600260008282546105159190611561565b925050819055503373ffffffffffffffffffffffffffffffffffffffff167f16a9aa39af49f169911e977347975198c503525f7240d6892a626f0227642fce60405160405180910390a2565b600080600060608060008060008873ffffffffffffffffffffffffffffffffffffffff1673ffffffffffffffffffffffffffffffffffffffff1681526020019081526020016000206040518060a00160405290816000820154815260200160018201548152602001600282015481526020016003820180548060200260200160405190810160405280929190818152602001828054801561062157602002820191906000526020600020905b81548152602001906001019080831161060d575b505050505081526020016004820180548060200260200160405190810160405280929190818152602001828054801561067957602002820191906000526020600020905b815481526020019060010190808311610665575b505050505081525050905080600001518160200151826040015183606001518460800151955095509550955095505091939590929450565b60008060003373ffffffffffffffffffffffffffffffffffffffff1673ffffffffffffffffffffffffffffffffffffffff1681526020019081526020016000206002015403610735576040517f08c379a000000000000000000000000000000000000000000000000000000000815260040161072c90611541565b60405180910390fd5b806007908051906020019061074b929190610b0b565b5060006002819055503373ffffffffffffffffffffffffffffffffffffffff167f5cc0e5bf5f40fff8ef623d36904aa6e6a9096143192597ab46bc537605b61e088260405161079a9190610f8c565b60405180910390a250565b606060035467ffffffffffffffff8111156107c3576107c2610bf9565b5b6040519080825280602002602001820160405280156107f15781602001602082028036833780820191505090505b50905060008151905060008060008573ffffffffffffffffffffffffffffffffffffffff1673ffffffffffffffffffffffffffffffffffffffff168152602001908152602001600020600201549050600080600090505b6005548110156108b557826001826108609190611561565b03156108a2576001816108739190611561565b858381518110610886576108856113d9565b5b60200260200101818152505060018261089f9190611561565b91505b80806108ad90611595565b915050610848565b5060006001846108c591906115dd565b90505b6000811115610a845760006001826108e09190611561565b828873ffffffffffffffffffffffffffffffffffffffff16600960019054906101000a900473ffffffffffffffffffffffffffffffffffffffff1673ffffffffffffffffffffffffffffffffffffffff166339e7357c6040518163ffffffff1660e01b8152600401602060405180830381865afa158015610965573d6000803e3d6000fd5b505050506040513d601f19601f82011682018060405250810190610989919061163d565b6109939190611561565b61099d9190611561565b6109a79190611699565b90505b6001826109b79190611561565b8682815181106109ca576109c96113d9565b5b6020026020010151036109f657846001826109e59190611561565b6109ef9190611699565b90506109aa565b6000868381518110610a0b57610a0a6113d9565b5b60200260200101519050868281518110610a2857610a276113d9565b5b6020026020010151878481518110610a4357610a426113d9565b5b60200260200101818152505080878381518110610a6357610a626113d9565b5b60200260200101818152505050508080610a7c906116ca565b9150506108c8565b50505050919050565b6002600554610a9c91906116f3565b6002541115610b09576001600960006101000a81548160ff02191690836001811115610acb57610aca6110a2565b5b02179055507f14bde92ebbe4bbfd8136903ee7942baf7b6a38d5f61b916bbe0aa1a2ca82921c6007604051610b009190612477565b60405180910390a15b565b82805482825590600052602060002090601f01602090048101928215610ba15791602002820160005b83821115610b7257835183826101000a81548160ff021916908360ff1602179055509260200192600101602081600001049283019260010302610b34565b8015610b9f5782816101000a81549060ff0219169055600101602081600001049283019260010302610b72565b505b509050610bae9190610bb2565b5090565b5b80821115610bcb576000816000905550600101610bb3565b5090565b6000604051905090565b600080fd5b600080fd5b600080fd5b6000601f19601f8301169050919050565b7f4e487b7100000000000000000000000000000000000000000000000000000000600052604160045260246000fd5b610c3182610be8565b810181811067ffffffffffffffff82111715610c5057610c4f610bf9565b5b80604052505050565b6000610c63610bcf565b9050610c6f8282610c28565b919050565b600067ffffffffffffffff821115610c8f57610c8e610bf9565b5b602082029050602081019050919050565b600080fd5b600060ff82169050919050565b610cbb81610ca5565b8114610cc657600080fd5b50565b600081359050610cd881610cb2565b92915050565b6000610cf1610cec84610c74565b610c59565b90508083825260208201905060208402830185811115610d1457610d13610ca0565b5b835b81811015610d3d5780610d298882610cc9565b845260208401935050602081019050610d16565b5050509392505050565b600082601f830112610d5c57610d5b610be3565b5b8135610d6c848260208601610cde565b91505092915050565b600067ffffffffffffffff821115610d9057610d8f610bf9565b5b602082029050602081019050919050565b6000610db4610daf84610d75565b610c59565b90508083825260208201905060208402830185811115610dd757610dd6610ca0565b5b835b81811015610e1e57803567ffffffffffffffff811115610dfc57610dfb610be3565b5b808601610e098982610d47565b85526020850194505050602081019050610dd9565b5050509392505050565b600082601f830112610e3d57610e3c610be3565b5b8135610e4d848260208601610da1565b91505092915050565b60008060408385031215610e6d57610e6c610bd9565b5b600083013567ffffffffffffffff811115610e8b57610e8a610bde565b5b610e9785828601610d47565b925050602083013567ffffffffffffffff811115610eb857610eb7610bde565b5b610ec485828601610e28565b9150509250929050565b600081519050919050565b600082825260208201905092915050565b6000819050602082019050919050565b610f0381610ca5565b82525050565b6000610f158383610efa565b60208301905092915050565b6000602082019050919050565b6000610f3982610ece565b610f438185610ed9565b9350610f4e83610eea565b8060005b83811015610f7f578151610f668882610f09565b9750610f7183610f21565b925050600181019050610f52565b5085935050505092915050565b60006020820190508181036000830152610fa68184610f2e565b905092915050565b600073ffffffffffffffffffffffffffffffffffffffff82169050919050565b6000610fd982610fae565b9050919050565b610fe981610fce565b8114610ff457600080fd5b50565b60008135905061100681610fe0565b92915050565b60006020828403121561102257611021610bd9565b5b600061103084828501610ff7565b91505092915050565b6000819050919050565b61104c81611039565b82525050565b6000819050919050565b61106581611052565b82525050565b60006060820190506110806000830186611043565b61108d602083018561105c565b61109a604083018461105c565b949350505050565b7f4e487b7100000000000000000000000000000000000000000000000000000000600052602160045260246000fd5b600281106110e2576110e16110a2565b5b50565b60008190506110f3826110d1565b919050565b6000611103826110e5565b9050919050565b611113816110f8565b82525050565b600060208201905061112e600083018461110a565b92915050565b6000819050919050565b600061115961115461114f84610fae565b611134565b610fae565b9050919050565b600061116b8261113e565b9050919050565b600061117d82611160565b9050919050565b61118d81611172565b82525050565b60006020820190506111a86000830184611184565b92915050565b600081519050919050565b600082825260208201905092915050565b60005b838110156111e85780820151818401526020810190506111cd565b60008484015250505050565b60006111ff826111ae565b61120981856111b9565b93506112198185602086016111ca565b61122281610be8565b840191505092915050565b6000602082019050818103600083015261124781846111f4565b905092915050565b600081519050919050565b600082825260208201905092915050565b6000819050602082019050919050565b61128481611052565b82525050565b6000611296838361127b565b60208301905092915050565b6000602082019050919050565b60006112ba8261124f565b6112c4818561125a565b93506112cf8361126b565b8060005b838110156113005781516112e7888261128a565b97506112f2836112a2565b9250506001810190506112d3565b5085935050505092915050565b600060a0820190506113226000830188611043565b61132f602083018761105c565b61133c604083018661105c565b818103606083015261134e81856112af565b9050818103608083015261136281846112af565b90509695505050505050565b60006020828403121561138457611383610bd9565b5b600082013567ffffffffffffffff8111156113a2576113a1610bde565b5b6113ae84828501610d47565b91505092915050565b600060208201905081810360008301526113d181846112af565b905092915050565b7f4e487b7100000000000000000000000000000000000000000000000000000000600052603260045260246000fd5b7f4e487b7100000000000000000000000000000000000000000000000000000000600052601160045260246000fd5b600061144282610ca5565b915060ff820361145557611454611408565b5b600182019050919050565b600061146b82610ca5565b915061147683610ca5565b9250828201905060ff81111561148f5761148e611408565b5b92915050565b7f4e487b7100000000000000000000000000000000000000000000000000000000600052602260045260246000fd5b600060028204905060018216806114dc57607f821691505b6020821081036114ef576114ee611495565b5b50919050565b7f4e6f742061207061727469636970616e74000000000000000000000000000000600082015250565b600061152b6011836111b9565b9150611536826114f5565b602082019050919050565b6000602082019050818103600083015261155a8161151e565b9050919050565b600061156c82611052565b915061157783611052565b925082820190508082111561158f5761158e611408565b5b92915050565b60006115a082611052565b91507fffffffffffffffffffffffffffffffffffffffffffffffffffffffffffffffff82036115d2576115d1611408565b5b600182019050919050565b60006115e882611052565b91506115f383611052565b925082820390508181111561160b5761160a611408565b5b92915050565b61161a81611052565b811461162557600080fd5b50565b60008151905061163781611611565b92915050565b60006020828403121561165357611652610bd9565b5b600061166184828501611628565b91505092915050565b7f4e487b7100000000000000000000000000000000000000000000000000000000600052601260045260246000fd5b60006116a482611052565b91506116af83611052565b9250826116bf576116be61166a565b5b828206905092915050565b60006116d582611052565b9150600082036116e8576116e7611408565b5b600182039050919050565b60006116fe82611052565b915061170983611052565b9250826117195761171861166a565b5b828204905092915050565b600081549050919050565b60008190508160005260206000209050919050565b60008160001c9050919050565b600060ff82169050919050565b600061177161176c83611744565b611751565b9050919050565b60008160081c9050919050565b600061179861179383611778565b611751565b9050919050565b60008160101c9050919050565b60006117bf6117ba8361179f565b611751565b9050919050565b60008160181c9050919050565b60006117e66117e1836117c6565b611751565b9050919050565b60008160201c9050919050565b600061180d611808836117ed565b611751565b9050919050565b60008160281c9050919050565b600061183461182f83611814565b611751565b9050919050565b60008160301c9050919050565b600061185b6118568361183b565b611751565b9050919050565b60008160381c9050919050565b600061188261187d83611862565b611751565b9050919050565b60008160401c9050919050565b60006118a96118a483611889565b611751565b9050919050565b60008160481c9050919050565b60006118d06118cb836118b0565b611751565b9050919050565b60008160501c9050919050565b60006118f76118f2836118d7565b611751565b9050919050565b60008160581c9050919050565b600061191e611919836118fe565b611751565b9050919050565b60008160601c9050919050565b600061194561194083611925565b611751565b9050919050565b60008160681c9050919050565b600061196c6119678361194c565b611751565b9050919050565b60008160701c9050919050565b600061199361198e83611973565b611751565b9050919050565b60008160781c9050919050565b60006119ba6119b58361199a565b611751565b9050919050565b60008160801c9050919050565b60006119e16119dc836119c1565b611751565b9050919050565b60008160881c9050919050565b6000611a08611a03836119e8565b611751565b9050919050565b60008160901c9050919050565b6000611a2f611a2a83611a0f565b611751565b9050919050565b60008160981c9050919050565b6000611a56611a5183611a36565b611751565b9050919050565b60008160a01c9050919050565b6000611a7d611a7883611a5d565b611751565b9050919050565b60008160a81c9050919050565b6000611aa4611a9f83611a84565b611751565b9050919050565b60008160b01c9050919050565b6000611acb611ac683611aab565b611751565b9050919050565b60008160b81c9050919050565b6000611af2611aed83611ad2565b611751565b9050919050565b60008160c01c9050919050565b6000611b19611b1483611af9565b611751565b9050919050565b60008160c81c9050919050565b6000611b40611b3b83611b20565b611751565b9050919050565b60008160d01c9050919050565b6000611b67611b6283611b47565b611751565b9050919050565b60008160d81c9050919050565b6000611b8e611b8983611b6e565b611751565b9050919050565b60008160e01c9050919050565b6000611bb5611bb083611b95565b611751565b9050919050565b60008160e81c9050919050565b6000611bdc611bd783611bbc565b611751565b9050919050565b60008160f01c9050919050565b6000611c03611bfe83611be3565b611751565b9050919050565b60008160f81c9050919050565b6000611c2a611c2583611c0a565b611751565b9050919050565b6000611c3c82611724565b611c468185610ed9565b935083611c528461172f565b6000600115611f7f575b83600160200382011015611f7e578154611c7e88611c798361175e565b610efa565b602088019750611c9688611c9183611785565b610efa565b602088019750611cae88611ca9836117ac565b610efa565b602088019750611cc688611cc1836117d3565b610efa565b602088019750611cde88611cd9836117fa565b610efa565b602088019750611cf688611cf183611821565b610efa565b602088019750611d0e88611d0983611848565b610efa565b602088019750611d2688611d218361186f565b610efa565b602088019750611d3e88611d3983611896565b610efa565b602088019750611d5688611d51836118bd565b610efa565b602088019750611d6e88611d69836118e4565b610efa565b602088019750611d8688611d818361190b565b610efa565b602088019750611d9e88611d9983611932565b610efa565b602088019750611db688611db183611959565b610efa565b602088019750611dce88611dc983611980565b610efa565b602088019750611de688611de1836119a7565b610efa565b602088019750611dfe88611df9836119ce565b610efa565b602088019750611e1688611e11836119f5565b610efa565b602088019750611e2e88611e2983611a1c565b610efa565b602088019750611e4688611e4183611a43565b610efa565b602088019750611e5e88611e5983611a6a565b610efa565b602088019750611e7688611e7183611a91565b610efa565b602088019750611e8e88611e8983611ab8565b610efa565b602088019750611ea688611ea183611adf565b610efa565b602088019750611ebe88611eb983611b06565b610efa565b602088019750611ed688611ed183611b2d565b610efa565b602088019750611eee88611ee983611b54565b610efa565b602088019750611f0688611f0183611b7b565b610efa565b602088019750611f1e88611f1983611ba2565b610efa565b602088019750611f3688611f3183611bc9565b610efa565b602088019750611f4e88611f4983611bf0565b610efa565b602088019750611f6688611f6183611c17565b610efa565b60208801975060018301925050602081019050611c5c565b5b60011561246a57815484821015611faf57611fa288611f9d8361175e565b610efa565b6020880197506001820191505b84821015611fd657611fc988611fc483611785565b610efa565b6020880197506001820191505b84821015611ffd57611ff088611feb836117ac565b610efa565b6020880197506001820191505b848210156120245761201788612012836117d3565b610efa565b6020880197506001820191505b8482101561204b5761203e88612039836117fa565b610efa565b6020880197506001820191505b84821015612072576120658861206083611821565b610efa565b6020880197506001820191505b848210156120995761208c8861208783611848565b610efa565b6020880197506001820191505b848210156120c0576120b3886120ae8361186f565b610efa565b6020880197506001820191505b848210156120e7576120da886120d583611896565b610efa565b6020880197506001820191505b8482101561210e57612101886120fc836118bd565b610efa565b6020880197506001820191505b848210156121355761212888612123836118e4565b610efa565b6020880197506001820191505b8482101561215c5761214f8861214a8361190b565b610efa565b6020880197506001820191505b84821015612183576121768861217183611932565b610efa565b6020880197506001820191505b848210156121aa5761219d8861219883611959565b610efa565b6020880197506001820191505b848210156121d1576121c4886121bf83611980565b610efa565b6020880197506001820191505b848210156121f8576121eb886121e6836119a7565b610efa565b6020880197506001820191505b8482101561221f576122128861220d836119ce565b610efa565b6020880197506001820191505b848210156122465761223988612234836119f5565b610efa565b6020880197506001820191505b8482101561226d576122608861225b83611a1c565b610efa565b6020880197506001820191505b84821015612294576122878861228283611a43565b610efa565b6020880197506001820191505b848210156122bb576122ae886122a983611a6a565b610efa565b6020880197506001820191505b848210156122e2576122d5886122d083611a91565b610efa565b6020880197506001820191505b84821015612309576122fc886122f783611ab8565b610efa565b6020880197506001820191505b84821015612330576123238861231e83611adf565b610efa565b6020880197506001820191505b848210156123575761234a8861234583611b06565b610efa565b6020880197506001820191505b8482101561237e576123718861236c83611b2d565b610efa565b6020880197506001820191505b848210156123a5576123988861239383611b54565b610efa565b6020880197506001820191505b848210156123cc576123bf886123ba83611b7b565b610efa565b6020880197506001820191505b848210156123f3576123e6886123e183611ba2565b610efa565b6020880197506001820191505b8482101561241a5761240d8861240883611bc9565b610efa565b6020880197506001820191505b84821015612441576124348861242f83611bf0565b610efa565b6020880197506001820191505b848210156124685761245b8861245683611c17565b610efa565b6020880197506001820191505b505b8694505050505092915050565b600060208201905081810360008301526124918184611c31565b90509291505056fea2646970667358221220f2e640f3b817364e7da570bcd0ed44e0fbfaf7186a2947c5fb5bdd988925eac864736f6c63430008140033",
  "linkReferences": {},
  "deployedLinkReferences": {}
}